{
  "_format": "hh-sol-artifact-1",
  "contractName": "Voting",
  "sourceName": "contracts/Voting.sol",
  "abi": [
    {
      "inputs": [],
      "stateMutability": "nonpayable",
      "type": "constructor"
    },
    {
      "anonymous": false,
      "inputs": [
        {
          "indexed": true,
          "internalType": "address",
          "name": "voter",
          "type": "address"
        },
        {
          "indexed": true,
          "internalType": "uint256",
          "name": "candidateId",
          "type": "uint256"
        }
      ],
      "name": "Voted",
      "type": "event"
    },
    {
      "inputs": [],
      "name": "announceWinner",
      "outputs": [
        {
          "internalType": "string",
          "name": "winnerName",
          "type": "string"
        },
        {
          "internalType": "uint256",
          "name": "winnerVoteCount",
          "type": "uint256"
        }
      ],
      "stateMutability": "view",
      "type": "function"
    },
    {
      "inputs": [
        {
          "internalType": "uint256",
          "name": "",
          "type": "uint256"
        }
      ],
      "name": "candidates",
      "outputs": [
        {
          "internalType": "uint256",
          "name": "id",
          "type": "uint256"
        },
        {
          "internalType": "string",
          "name": "name",
          "type": "string"
        },
        {
          "internalType": "uint256",
          "name": "voteCount",
          "type": "uint256"
        }
      ],
      "stateMutability": "view",
      "type": "function"
    },
    {
      "inputs": [],
      "name": "candidatesCount",
      "outputs": [
        {
          "internalType": "uint256",
          "name": "",
          "type": "uint256"
        }
      ],
      "stateMutability": "view",
      "type": "function"
    },
    {
      "inputs": [
        {
          "internalType": "uint256",
          "name": "_candidateId",
          "type": "uint256"
        }
      ],
      "name": "vote",
      "outputs": [],
      "stateMutability": "nonpayable",
      "type": "function"
    },
    {
      "inputs": [
        {
          "internalType": "address",
          "name": "",
          "type": "address"
        }
      ],
      "name": "voters",
      "outputs": [
        {
          "internalType": "bool",
          "name": "",
          "type": "bool"
        }
      ],
      "stateMutability": "view",
      "type": "function"
    }
  ],
  "bytecode": "0x60806040523480156200001157600080fd5b50620000586040518060400160405280600581526020017f416c696365000000000000000000000000000000000000000000000000000000815250620000ea60201b60201c565b6200009e6040518060400160405280600381526020017f426f620000000000000000000000000000000000000000000000000000000000815250620000ea60201b60201c565b620000e46040518060400160405280600781526020017f436861726c696500000000000000000000000000000000000000000000000000815250620000ea60201b60201c565b6200030b565b60026000815480929190620000ff906200025f565b919050555060405180606001604052806002548152602001828152602001600081525060008060025481526020019081526020016000206000820151816000015560208201518160010190805190602001906200015e9291906200016f565b506040820151816002015590505050565b8280546200017d9062000229565b90600052602060002090601f016020900481019282620001a15760008555620001ed565b82601f10620001bc57805160ff1916838001178555620001ed565b82800160010185558215620001ed579182015b82811115620001ec578251825591602001919060010190620001cf565b5b509050620001fc919062000200565b5090565b5b808211156200021b57600081600090555060010162000201565b5090565b6000819050919050565b600060028204905060018216806200024257607f821691505b60208210811415620002595762000258620002dc565b5b50919050565b60006200026c826200021f565b91507fffffffffffffffffffffffffffffffffffffffffffffffffffffffffffffffff821415620002a257620002a1620002ad565b5b600182019050919050565b7f4e487b7100000000000000000000000000000000000000000000000000000000600052601160045260246000fd5b7f4e487b7100000000000000000000000000000000000000000000000000000000600052602260045260246000fd5b610ac6806200031b6000396000f3fe608060405234801561001057600080fd5b50600436106100575760003560e01c80630121b93f1461005c5780632d35a8a2146100785780632d8cd096146100965780633477ee2e146100b5578063a3ec138d146100e7575b600080fd5b6100766004803603810190610071919061069b565b610117565b005b610080610334565b60405161008d9190610888565b60405180910390f35b61009e61033a565b6040516100ac929190610818565b60405180910390f35b6100cf60048036038101906100ca919061069b565b61045f565b6040516100de939291906108a3565b60405180910390f35b61010160048036038101906100fc9190610672565b610511565b60405161010e91906107aa565b60405180910390f35b600160003373ffffffffffffffffffffffffffffffffffffffff1673ffffffffffffffffffffffffffffffffffffffff16815260200190815260200160002060009054906101000a900460ff16156101a4576040517f08c379a000000000000000000000000000000000000000000000000000000000815260040161019b90610848565b60405180910390fd5b6000811180156101b657506002548111155b6101f5576040517f08c379a00000000000000000000000000000000000000000000000000000000081526004016101ec90610868565b60405180910390fd5b60018060003373ffffffffffffffffffffffffffffffffffffffff1673ffffffffffffffffffffffffffffffffffffffff16815260200190815260200160002060006101000a81548160ff0219169083151502179055506000808281526020019081526020016000206002016000815480929190610272906109aa565b91905055506102ed6040518060400160405280600681526020017f566f7465723a0000000000000000000000000000000000000000000000000000815250336040518060400160405280601781526020017f766f74656420666f722063616e6469646174652049443a00000000000000000081525084610531565b803373ffffffffffffffffffffffffffffffffffffffff167f4d99b957a2bc29a30ebd96a7be8e68fe50a3c701db28a91436490b7d53870ca460405160405180910390a350565b60025481565b606060008060009050600080600190505b60025481116103a0578260008083815260200190815260200160002060020154111561038d576000808281526020019081526020016000206002015492508091505b8080610398906109aa565b91505061034b565b5060008082815260200190815260200160002060010180546103c190610978565b80601f01602080910402602001604051908101604052809291908181526020018280546103ed90610978565b801561043a5780601f1061040f5761010080835404028352916020019161043a565b820191906000526020600020905b81548152906001019060200180831161041d57829003601f168201915b5050505050935060008082815260200190815260200160002060020154925050509091565b600060205280600052604060002060009150905080600001549080600101805461048890610978565b80601f01602080910402602001604051908101604052809291908181526020018280546104b490610978565b80156105015780601f106104d657610100808354040283529160200191610501565b820191906000526020600020905b8154815290600101906020018083116104e457829003601f168201915b5050505050908060020154905083565b60016020528060005260406000206000915054906101000a900460ff1681565b6105cd8484848460405160240161054b94939291906107c5565b6040516020818303038152906040527f91d1112e000000000000000000000000000000000000000000000000000000007bffffffffffffffffffffffffffffffffffffffffffffffffffffffff19166020820180517bffffffffffffffffffffffffffffffffffffffffffffffffffffffff83818316178352505050506105d3565b50505050565b6105ea816105e26105ed61060e565b63ffffffff16565b50565b60006a636f6e736f6c652e6c6f679050600080835160208501845afa505050565b610619819050919050565b7f4e487b7100000000000000000000000000000000000000000000000000000000600052605160045260246000fd5b60008135905061065781610a62565b92915050565b60008135905061066c81610a79565b92915050565b60006020828403121561068457600080fd5b600061069284828501610648565b91505092915050565b6000602082840312156106ad57600080fd5b60006106bb8482850161065d565b91505092915050565b6106cd816108fd565b82525050565b6106dc8161090f565b82525050565b60006106ed826108e1565b6106f781856108ec565b9350610707818560208601610945565b61071081610a51565b840191505092915050565b60006107286017836108ec565b91507f596f75206861766520616c726561647920766f7465642e0000000000000000006000830152602082019050919050565b60006107686015836108ec565b91507f496e76616c69642063616e6469646174652049442e00000000000000000000006000830152602082019050919050565b6107a48161093b565b82525050565b60006020820190506107bf60008301846106d3565b92915050565b600060808201905081810360008301526107df81876106e2565b90506107ee60208301866106c4565b818103604083015261080081856106e2565b905061080f606083018461079b565b95945050505050565b6000604082019050818103600083015261083281856106e2565b9050610841602083018461079b565b9392505050565b600060208201905081810360008301526108618161071b565b9050919050565b600060208201905081810360008301526108818161075b565b9050919050565b600060208201905061089d600083018461079b565b92915050565b60006060820190506108b8600083018661079b565b81810360208301526108ca81856106e2565b90506108d9604083018461079b565b949350505050565b600081519050919050565b600082825260208201905092915050565b60006109088261091b565b9050919050565b60008115159050919050565b600073ffffffffffffffffffffffffffffffffffffffff82169050919050565b6000819050919050565b60005b83811015610963578082015181840152602081019050610948565b83811115610972576000848401525b50505050565b6000600282049050600182168061099057607f821691505b602082108114156109a4576109a3610a22565b5b50919050565b60006109b58261093b565b91507fffffffffffffffffffffffffffffffffffffffffffffffffffffffffffffffff8214156109e8576109e76109f3565b5b600182019050919050565b7f4e487b7100000000000000000000000000000000000000000000000000000000600052601160045260246000fd5b7f4e487b7100000000000000000000000000000000000000000000000000000000600052602260045260246000fd5b6000601f19601f8301169050919050565b610a6b816108fd565b8114610a7657600080fd5b50565b610a828161093b565b8114610a8d57600080fd5b5056fea26469706673582212204b2ad6f07d35ba113b5c562aa2e23b345c816da93117739bfc66690cf3b97dc464736f6c63430008000033",
  "linkReferences": {},
  "deployedLinkReferences": {}
}