{
  "_format": "hh-sol-artifact-1",
  "contractName": "Voting",
  "sourceName": "contracts/Voting.sol",
  "abi": [
    {
      "inputs": [],
      "stateMutability": "nonpayable",
      "type": "constructor"
    },
    {
      "anonymous": false,
      "inputs": [
        {
          "indexed": true,
          "internalType": "address",
          "name": "voter",
          "type": "address"
        },
        {
          "indexed": true,
          "internalType": "uint256",
          "name": "candidateId",
          "type": "uint256"
        }
      ],
      "name": "Voted",
      "type": "event"
    },
    {
      "inputs": [
        {
          "internalType": "address",
          "name": "_voter",
          "type": "address"
        }
      ],
      "name": "addVoter",
      "outputs": [],
      "stateMutability": "nonpayable",
      "type": "function"
    },
    {
      "inputs": [],
      "name": "announceWinner",
      "outputs": [
        {
          "internalType": "string",
          "name": "winnerName",
          "type": "string"
        },
        {
          "internalType": "uint256",
          "name": "winnerVoteCount",
          "type": "uint256"
        }
      ],
      "stateMutability": "view",
      "type": "function"
    },
    {
      "inputs": [
        {
          "internalType": "uint256",
          "name": "",
          "type": "uint256"
        }
      ],
      "name": "candidates",
      "outputs": [
        {
          "internalType": "uint256",
          "name": "id",
          "type": "uint256"
        },
        {
          "internalType": "string",
          "name": "name",
          "type": "string"
        },
        {
          "internalType": "uint256",
          "name": "voteCount",
          "type": "uint256"
        }
      ],
      "stateMutability": "view",
      "type": "function"
    },
    {
      "inputs": [],
      "name": "candidatesCount",
      "outputs": [
        {
          "internalType": "uint256",
          "name": "",
          "type": "uint256"
        }
      ],
      "stateMutability": "view",
      "type": "function"
    },
    {
      "inputs": [
        {
          "internalType": "address",
          "name": "",
          "type": "address"
        }
      ],
      "name": "hasVoted",
      "outputs": [
        {
          "internalType": "bool",
          "name": "",
          "type": "bool"
        }
      ],
      "stateMutability": "view",
      "type": "function"
    },
    {
      "inputs": [
        {
          "internalType": "address",
          "name": "",
          "type": "address"
        }
      ],
      "name": "registeredVoters",
      "outputs": [
        {
          "internalType": "bool",
          "name": "",
          "type": "bool"
        }
      ],
      "stateMutability": "view",
      "type": "function"
    },
    {
      "inputs": [
        {
          "internalType": "uint256",
          "name": "_candidateId",
          "type": "uint256"
        }
      ],
      "name": "vote",
      "outputs": [],
      "stateMutability": "nonpayable",
      "type": "function"
    },
    {
      "inputs": [
        {
          "internalType": "uint256",
          "name": "",
          "type": "uint256"
        }
      ],
      "name": "voterList",
      "outputs": [
        {
          "internalType": "address",
          "name": "",
          "type": "address"
        }
      ],
      "stateMutability": "view",
      "type": "function"
    }
  ],
  "bytecode": "0x60806040523480156200001157600080fd5b50620000586040518060400160405280600581526020017f416c696365000000000000000000000000000000000000000000000000000000815250620000ea60201b60201c565b6200009e6040518060400160405280600381526020017f426f620000000000000000000000000000000000000000000000000000000000815250620000ea60201b60201c565b620000e46040518060400160405280600781526020017f436861726c696500000000000000000000000000000000000000000000000000815250620000ea60201b60201c565b6200030b565b60046000815480929190620000ff906200025f565b919050555060405180606001604052806004548152602001828152602001600081525060008060045481526020019081526020016000206000820151816000015560208201518160010190805190602001906200015e9291906200016f565b506040820151816002015590505050565b8280546200017d9062000229565b90600052602060002090601f016020900481019282620001a15760008555620001ed565b82601f10620001bc57805160ff1916838001178555620001ed565b82800160010185558215620001ed579182015b82811115620001ec578251825591602001919060010190620001cf565b5b509050620001fc919062000200565b5090565b5b808211156200021b57600081600090555060010162000201565b5090565b6000819050919050565b600060028204905060018216806200024257607f821691505b60208210811415620002595762000258620002dc565b5b50919050565b60006200026c826200021f565b91507fffffffffffffffffffffffffffffffffffffffffffffffffffffffffffffffff821415620002a257620002a1620002ad565b5b600182019050919050565b7f4e487b7100000000000000000000000000000000000000000000000000000000600052601160045260246000fd5b7f4e487b7100000000000000000000000000000000000000000000000000000000600052602260045260246000fd5b610e84806200031b6000396000f3fe608060405234801561001057600080fd5b50600436106100885760003560e01c80633477ee2e1161005b5780633477ee2e1461011657806350e2e8af14610148578063a9ff6df114610178578063f4ab9adf146101a857610088565b80630121b93f1461008d57806309eef43e146100a95780632d35a8a2146100d95780632d8cd096146100f7575b600080fd5b6100a760048036038101906100a2919061097e565b6101c4565b005b6100c360048036038101906100be9190610955565b61046e565b6040516100d09190610b28565b60405180910390f35b6100e161048e565b6040516100ee9190610c46565b60405180910390f35b6100ff610494565b60405161010d929190610b96565b60405180910390f35b610130600480360381019061012b919061097e565b6105b9565b60405161013f93929190610c61565b60405180910390f35b610162600480360381019061015d919061097e565b61066b565b60405161016f9190610b0d565b60405180910390f35b610192600480360381019061018d9190610955565b6106aa565b60405161019f9190610b28565b60405180910390f35b6101c260048036038101906101bd9190610955565b6106ca565b005b600160003373ffffffffffffffffffffffffffffffffffffffff1673ffffffffffffffffffffffffffffffffffffffff16815260200190815260200160002060009054906101000a900460ff16610250576040517f08c379a000000000000000000000000000000000000000000000000000000000815260040161024790610be6565b60405180910390fd5b600260003373ffffffffffffffffffffffffffffffffffffffff1673ffffffffffffffffffffffffffffffffffffffff16815260200190815260200160002060009054906101000a900460ff16156102dd576040517f08c379a00000000000000000000000000000000000000000000000000000000081526004016102d490610bc6565b60405180910390fd5b6000811180156102ef57506004548111155b61032e576040517f08c379a000000000000000000000000000000000000000000000000000000000815260040161032590610c26565b60405180910390fd5b6001600260003373ffffffffffffffffffffffffffffffffffffffff1673ffffffffffffffffffffffffffffffffffffffff16815260200190815260200160002060006101000a81548160ff02191690831515021790555060008082815260200190815260200160002060020160008154809291906103ac90610d68565b91905055506104276040518060400160405280600681526020017f566f7465723a0000000000000000000000000000000000000000000000000000815250336040518060400160405280601781526020017f766f74656420666f722063616e6469646174652049443a00000000000000000081525084610814565b803373ffffffffffffffffffffffffffffffffffffffff167f4d99b957a2bc29a30ebd96a7be8e68fe50a3c701db28a91436490b7d53870ca460405160405180910390a350565b60026020528060005260406000206000915054906101000a900460ff1681565b60045481565b606060008060009050600080600190505b60045481116104fa57826000808381526020019081526020016000206002015411156104e7576000808281526020019081526020016000206002015492508091505b80806104f290610d68565b9150506104a5565b50600080828152602001908152602001600020600101805461051b90610d36565b80601f016020809104026020016040519081016040528092919081815260200182805461054790610d36565b80156105945780601f1061056957610100808354040283529160200191610594565b820191906000526020600020905b81548152906001019060200180831161057757829003601f168201915b5050505050935060008082815260200190815260200160002060020154925050509091565b60006020528060005260406000206000915090508060000154908060010180546105e290610d36565b80601f016020809104026020016040519081016040528092919081815260200182805461060e90610d36565b801561065b5780601f106106305761010080835404028352916020019161065b565b820191906000526020600020905b81548152906001019060200180831161063e57829003601f168201915b5050505050908060020154905083565b6003818154811061067b57600080fd5b906000526020600020016000915054906101000a900473ffffffffffffffffffffffffffffffffffffffff1681565b60016020528060005260406000206000915054906101000a900460ff1681565b600160008273ffffffffffffffffffffffffffffffffffffffff1673ffffffffffffffffffffffffffffffffffffffff16815260200190815260200160002060009054906101000a900460ff1615610757576040517f08c379a000000000000000000000000000000000000000000000000000000000815260040161074e90610c06565b60405180910390fd5b60018060008373ffffffffffffffffffffffffffffffffffffffff1673ffffffffffffffffffffffffffffffffffffffff16815260200190815260200160002060006101000a81548160ff0219169083151502179055506003819080600181540180825580915050600190039060005260206000200160009091909190916101000a81548173ffffffffffffffffffffffffffffffffffffffff021916908373ffffffffffffffffffffffffffffffffffffffff16021790555050565b6108b08484848460405160240161082e9493929190610b43565b6040516020818303038152906040527f91d1112e000000000000000000000000000000000000000000000000000000007bffffffffffffffffffffffffffffffffffffffffffffffffffffffff19166020820180517bffffffffffffffffffffffffffffffffffffffffffffffffffffffff83818316178352505050506108b6565b50505050565b6108cd816108c56108d06108f1565b63ffffffff16565b50565b60006a636f6e736f6c652e6c6f679050600080835160208501845afa505050565b6108fc819050919050565b7f4e487b7100000000000000000000000000000000000000000000000000000000600052605160045260246000fd5b60008135905061093a81610e20565b92915050565b60008135905061094f81610e37565b92915050565b60006020828403121561096757600080fd5b60006109758482850161092b565b91505092915050565b60006020828403121561099057600080fd5b600061099e84828501610940565b91505092915050565b6109b081610cbb565b82525050565b6109bf81610ccd565b82525050565b60006109d082610c9f565b6109da8185610caa565b93506109ea818560208601610d03565b6109f381610e0f565b840191505092915050565b6000610a0b601783610caa565b91507f596f75206861766520616c726561647920766f7465642e0000000000000000006000830152602082019050919050565b6000610a4b601f83610caa565b91507f596f7520617265206e6f742061207265676973746572656420766f7465722e006000830152602082019050919050565b6000610a8b601483610caa565b91507f566f74657220616c72656164792061646465642e0000000000000000000000006000830152602082019050919050565b6000610acb601583610caa565b91507f496e76616c69642063616e6469646174652049442e00000000000000000000006000830152602082019050919050565b610b0781610cf9565b82525050565b6000602082019050610b2260008301846109a7565b92915050565b6000602082019050610b3d60008301846109b6565b92915050565b60006080820190508181036000830152610b5d81876109c5565b9050610b6c60208301866109a7565b8181036040830152610b7e81856109c5565b9050610b8d6060830184610afe565b95945050505050565b60006040820190508181036000830152610bb081856109c5565b9050610bbf6020830184610afe565b9392505050565b60006020820190508181036000830152610bdf816109fe565b9050919050565b60006020820190508181036000830152610bff81610a3e565b9050919050565b60006020820190508181036000830152610c1f81610a7e565b9050919050565b60006020820190508181036000830152610c3f81610abe565b9050919050565b6000602082019050610c5b6000830184610afe565b92915050565b6000606082019050610c766000830186610afe565b8181036020830152610c8881856109c5565b9050610c976040830184610afe565b949350505050565b600081519050919050565b600082825260208201905092915050565b6000610cc682610cd9565b9050919050565b60008115159050919050565b600073ffffffffffffffffffffffffffffffffffffffff82169050919050565b6000819050919050565b60005b83811015610d21578082015181840152602081019050610d06565b83811115610d30576000848401525b50505050565b60006002820490506001821680610d4e57607f821691505b60208210811415610d6257610d61610de0565b5b50919050565b6000610d7382610cf9565b91507fffffffffffffffffffffffffffffffffffffffffffffffffffffffffffffffff821415610da657610da5610db1565b5b600182019050919050565b7f4e487b7100000000000000000000000000000000000000000000000000000000600052601160045260246000fd5b7f4e487b7100000000000000000000000000000000000000000000000000000000600052602260045260246000fd5b6000601f19601f8301169050919050565b610e2981610cbb565b8114610e3457600080fd5b50565b610e4081610cf9565b8114610e4b57600080fd5b5056fea2646970667358221220b3e670d5909c34cef81d2e4f4906f8f660001b22fe8eca69ce9bf9098e841b4464736f6c63430008000033",
  "linkReferences": {},
  "deployedLinkReferences": {}
}