{
  "_format": "hh-sol-artifact-1",
  "contractName": "Voting",
  "sourceName": "contracts/Voting.sol",
  "abi": [
    {
      "inputs": [],
      "stateMutability": "nonpayable",
      "type": "constructor"
    },
    {
      "anonymous": false,
      "inputs": [
        {
          "indexed": true,
          "internalType": "address",
          "name": "voter",
          "type": "address"
        },
        {
          "indexed": true,
          "internalType": "uint256",
          "name": "candidateId",
          "type": "uint256"
        }
      ],
      "name": "Voted",
      "type": "event"
    },
    {
      "anonymous": false,
      "inputs": [
        {
          "indexed": true,
          "internalType": "address",
          "name": "voter",
          "type": "address"
        }
      ],
      "name": "VoterAdded",
      "type": "event"
    },
    {
      "inputs": [
        {
          "internalType": "address",
          "name": "_voter",
          "type": "address"
        }
      ],
      "name": "addVoter",
      "outputs": [],
      "stateMutability": "nonpayable",
      "type": "function"
    },
    {
      "inputs": [],
      "name": "announceWinner",
      "outputs": [
        {
          "internalType": "string",
          "name": "winnerName",
          "type": "string"
        },
        {
          "internalType": "uint256",
          "name": "winnerVoteCount",
          "type": "uint256"
        }
      ],
      "stateMutability": "view",
      "type": "function"
    },
    {
      "inputs": [
        {
          "internalType": "uint256",
          "name": "",
          "type": "uint256"
        }
      ],
      "name": "candidates",
      "outputs": [
        {
          "internalType": "uint256",
          "name": "id",
          "type": "uint256"
        },
        {
          "internalType": "string",
          "name": "name",
          "type": "string"
        },
        {
          "internalType": "uint256",
          "name": "voteCount",
          "type": "uint256"
        }
      ],
      "stateMutability": "view",
      "type": "function"
    },
    {
      "inputs": [],
      "name": "candidatesCount",
      "outputs": [
        {
          "internalType": "uint256",
          "name": "",
          "type": "uint256"
        }
      ],
      "stateMutability": "view",
      "type": "function"
    },
    {
      "inputs": [],
      "name": "getVoterCount",
      "outputs": [
        {
          "internalType": "uint256",
          "name": "",
          "type": "uint256"
        }
      ],
      "stateMutability": "view",
      "type": "function"
    },
    {
      "inputs": [
        {
          "internalType": "address",
          "name": "",
          "type": "address"
        }
      ],
      "name": "hasVoted",
      "outputs": [
        {
          "internalType": "bool",
          "name": "",
          "type": "bool"
        }
      ],
      "stateMutability": "view",
      "type": "function"
    },
    {
      "inputs": [
        {
          "internalType": "address",
          "name": "",
          "type": "address"
        }
      ],
      "name": "registeredVoters",
      "outputs": [
        {
          "internalType": "bool",
          "name": "",
          "type": "bool"
        }
      ],
      "stateMutability": "view",
      "type": "function"
    },
    {
      "inputs": [
        {
          "internalType": "uint256",
          "name": "_candidateId",
          "type": "uint256"
        }
      ],
      "name": "vote",
      "outputs": [],
      "stateMutability": "nonpayable",
      "type": "function"
    },
    {
      "inputs": [
        {
          "internalType": "uint256",
          "name": "",
          "type": "uint256"
        }
      ],
      "name": "voterList",
      "outputs": [
        {
          "internalType": "address",
          "name": "",
          "type": "address"
        }
      ],
      "stateMutability": "view",
      "type": "function"
    }
  ],
  "bytecode": "0x60806040523480156200001157600080fd5b50620000226200002860201b60201c565b62000c99565b60006040518061042001604052806040518060400160405280600d81526020017f4e6172656e647261204d6f64690000000000000000000000000000000000000081525081526020016040518060400160405280600c81526020017f526168756c2047616e646869000000000000000000000000000000000000000081525081526020016040518060400160405280600981526020017f416d69742053686168000000000000000000000000000000000000000000000081525081526020016040518060400160405280600f81526020017f596f6769204164697479616e617468000000000000000000000000000000000081525081526020016040518060400160405280600f81526020017f417276696e64204b656a726977616c000000000000000000000000000000000081525081526020016040518060400160405280600f81526020017f4d616d6174612042616e65726a6565000000000000000000000000000000000081525081526020016040518060400160405280600c81526020017f536861726164205061776172000000000000000000000000000000000000000081525081526020016040518060400160405280601081526020017f55646468617620546861636b657261790000000000000000000000000000000081525081526020016040518060400160405280600c81526020017f4e6974697368204b756d6172000000000000000000000000000000000000000081525081526020016040518060400160405280600e81526020017f54656a617368776920596164617600000000000000000000000000000000000081525081526020016040518060400160405280600e81526020017f416b68696c65736820596164617600000000000000000000000000000000000081525081526020016040518060400160405280600881526020017f4d6179617761746900000000000000000000000000000000000000000000000081525081526020016040518060400160405280601181526020017f4368616e64726162616275204e6169647500000000000000000000000000000081525081526020016040518060400160405280601181526020017f4a6167616e204d6f68616e20526564647900000000000000000000000000000081525081526020016040518060400160405280601481526020017f4b2e204368616e6472617368656b61722052616f00000000000000000000000081525081526020016040518060400160405280600c81526020017f536f6e69612047616e646869000000000000000000000000000000000000000081525081526020016040518060400160405280601081526020017f50696e61726179692056696a6179616e0000000000000000000000000000000081525081526020016040518060400160405280600981526020017f4d4b205374616c696e000000000000000000000000000000000000000000000081525081526020016040518060400160405280601181526020017f446576656e647261204661646e6176697300000000000000000000000000000081525081526020016040518060400160405280600c81526020017f48656d616e7420536f72656e000000000000000000000000000000000000000081525081526020016040518060400160405280601081526020017f4269706c6162204b756d6172204465620000000000000000000000000000000081525081526020016040518060400160405280600e81526020017f426875706573682042616768656c00000000000000000000000000000000000081525081526020016040518060400160405280601381526020017f4d616e6f686172204c616c204b6861747461720000000000000000000000000081525081526020016040518060400160405280601081526020017f42617361766172616a20426f6d6d61690000000000000000000000000000000081525081526020016040518060400160405280600c81526020017f4173686f6b204765686c6f74000000000000000000000000000000000000000081525081526020016040518060400160405280600c81526020017f53616368696e2050696c6f74000000000000000000000000000000000000000081525081526020016040518060400160405280600e81526020017f4e617665656e205061746e61696b00000000000000000000000000000000000081525081526020016040518060400160405280600f81526020017f566173756e64686172612052616a65000000000000000000000000000000000081525081526020016040518060400160405280601381526020017f53756b686269722053696e676820426164616c0000000000000000000000000081525081526020016040518060400160405280601481526020017f48617273696d726174204b61757220426164616c00000000000000000000000081525081526020016040518060400160405280600d81526020017f4a6974696e20507261736164610000000000000000000000000000000000000081525081526020016040518060400160405280601481526020017f4a796f746972616469747961205363696e64696100000000000000000000000081525081526020016040518060400160405280600d81526020017f52616a6e6174682053696e676800000000000000000000000000000000000000815250815250905060005b6021811015620008895760046000815480929190620007f390620008c6565b91905055506040518060600160405280600454815260200183836021811062000821576200082062000913565b5b602002015181526020016000815250600080600454815260200190815260200160002060008201518160000155602082015181600101908162000865919062000bb2565b506040820151816002015590505080806200088090620008c6565b915050620007d4565b5050565b7f4e487b7100000000000000000000000000000000000000000000000000000000600052601160045260246000fd5b6000819050919050565b6000620008d382620008bc565b91507fffffffffffffffffffffffffffffffffffffffffffffffffffffffffffffffff82036200090857620009076200088d565b5b600182019050919050565b7f4e487b7100000000000000000000000000000000000000000000000000000000600052603260045260246000fd5b600081519050919050565b7f4e487b7100000000000000000000000000000000000000000000000000000000600052604160045260246000fd5b7f4e487b7100000000000000000000000000000000000000000000000000000000600052602260045260246000fd5b60006002820490506001821680620009c457607f821691505b602082108103620009da57620009d96200097c565b5b50919050565b60008190508160005260206000209050919050565b60006020601f8301049050919050565b600082821b905092915050565b60006008830262000a447fffffffffffffffffffffffffffffffffffffffffffffffffffffffffffffffff8262000a05565b62000a50868362000a05565b95508019841693508086168417925050509392505050565b6000819050919050565b600062000a9362000a8d62000a8784620008bc565b62000a68565b620008bc565b9050919050565b6000819050919050565b62000aaf8362000a72565b62000ac762000abe8262000a9a565b84845462000a12565b825550505050565b600090565b62000ade62000acf565b62000aeb81848462000aa4565b505050565b5b8181101562000b135762000b0760008262000ad4565b60018101905062000af1565b5050565b601f82111562000b625762000b2c81620009e0565b62000b3784620009f5565b8101602085101562000b47578190505b62000b5f62000b5685620009f5565b83018262000af0565b50505b505050565b600082821c905092915050565b600062000b876000198460080262000b67565b1980831691505092915050565b600062000ba2838362000b74565b9150826002028217905092915050565b62000bbd8262000942565b67ffffffffffffffff81111562000bd95762000bd86200094d565b5b62000be58254620009ab565b62000bf282828562000b17565b600060209050601f83116001811462000c2a576000841562000c15578287015190505b62000c21858262000b94565b86555062000c91565b601f19841662000c3a86620009e0565b60005b8281101562000c645784890151825560018201915060208501945060208101905062000c3d565b8683101562000c84578489015162000c80601f89168262000b74565b8355505b6001600288020188555050505b505050505050565b610d528062000ca96000396000f3fe608060405234801561001057600080fd5b50600436106100935760003560e01c80632d8cd096116100665780632d8cd096146101205780633477ee2e1461013f57806350e2e8af14610171578063a9ff6df1146101a1578063f4ab9adf146101d157610093565b80630121b93f1461009857806309eef43e146100b457806311174a29146100e45780632d35a8a214610102575b600080fd5b6100b260048036038101906100ad9190610855565b6101ed565b005b6100ce60048036038101906100c991906108e0565b610421565b6040516100db9190610928565b60405180910390f35b6100ec610441565b6040516100f99190610952565b60405180910390f35b61010a61044e565b6040516101179190610952565b60405180910390f35b610128610454565b6040516101369291906109fd565b60405180910390f35b61015960048036038101906101549190610855565b61057c565b60405161016893929190610a2d565b60405180910390f35b61018b60048036038101906101869190610855565b61062e565b6040516101989190610a7a565b60405180910390f35b6101bb60048036038101906101b691906108e0565b61066d565b6040516101c89190610928565b60405180910390f35b6101eb60048036038101906101e691906108e0565b61068d565b005b600160003373ffffffffffffffffffffffffffffffffffffffff1673ffffffffffffffffffffffffffffffffffffffff16815260200190815260200160002060009054906101000a900460ff16610279576040517f08c379a000000000000000000000000000000000000000000000000000000000815260040161027090610ae1565b60405180910390fd5b600260003373ffffffffffffffffffffffffffffffffffffffff1673ffffffffffffffffffffffffffffffffffffffff16815260200190815260200160002060009054906101000a900460ff1615610306576040517f08c379a00000000000000000000000000000000000000000000000000000000081526004016102fd90610b4d565b60405180910390fd5b60008111801561031857506004548111155b610357576040517f08c379a000000000000000000000000000000000000000000000000000000000815260040161034e90610bb9565b60405180910390fd5b6001600260003373ffffffffffffffffffffffffffffffffffffffff1673ffffffffffffffffffffffffffffffffffffffff16815260200190815260200160002060006101000a81548160ff02191690831515021790555060008082815260200190815260200160002060020160008154809291906103d590610c08565b9190505550803373ffffffffffffffffffffffffffffffffffffffff167f4d99b957a2bc29a30ebd96a7be8e68fe50a3c701db28a91436490b7d53870ca460405160405180910390a350565b60026020528060005260406000206000915054906101000a900460ff1681565b6000600380549050905090565b60045481565b606060008060009050600080600190505b60045481116104ba57826000808381526020019081526020016000206002015411156104a7576000808281526020019081526020016000206002015492508091505b80806104b290610c08565b915050610465565b50600080828152602001908152602001600020600101600080838152602001908152602001600020600201548180546104f290610c7f565b80601f016020809104026020016040519081016040528092919081815260200182805461051e90610c7f565b801561056b5780601f106105405761010080835404028352916020019161056b565b820191906000526020600020905b81548152906001019060200180831161054e57829003601f168201915b505050505091509350935050509091565b60006020528060005260406000206000915090508060000154908060010180546105a590610c7f565b80601f01602080910402602001604051908101604052809291908181526020018280546105d190610c7f565b801561061e5780601f106105f35761010080835404028352916020019161061e565b820191906000526020600020905b81548152906001019060200180831161060157829003601f168201915b5050505050908060020154905083565b6003818154811061063e57600080fd5b906000526020600020016000915054906101000a900473ffffffffffffffffffffffffffffffffffffffff1681565b60016020528060005260406000206000915054906101000a900460ff1681565b600160008273ffffffffffffffffffffffffffffffffffffffff1673ffffffffffffffffffffffffffffffffffffffff16815260200190815260200160002060009054906101000a900460ff161561071a576040517f08c379a000000000000000000000000000000000000000000000000000000000815260040161071190610cfc565b60405180910390fd5b60018060008373ffffffffffffffffffffffffffffffffffffffff1673ffffffffffffffffffffffffffffffffffffffff16815260200190815260200160002060006101000a81548160ff0219169083151502179055506003819080600181540180825580915050600190039060005260206000200160009091909190916101000a81548173ffffffffffffffffffffffffffffffffffffffff021916908373ffffffffffffffffffffffffffffffffffffffff1602179055508073ffffffffffffffffffffffffffffffffffffffff167fa636f4a11e2d3ba7f89d042ecb0a6b886716e98cd49d8fd876ee0f73bced42b860405160405180910390a250565b600080fd5b6000819050919050565b6108328161081f565b811461083d57600080fd5b50565b60008135905061084f81610829565b92915050565b60006020828403121561086b5761086a61081a565b5b600061087984828501610840565b91505092915050565b600073ffffffffffffffffffffffffffffffffffffffff82169050919050565b60006108ad82610882565b9050919050565b6108bd816108a2565b81146108c857600080fd5b50565b6000813590506108da816108b4565b92915050565b6000602082840312156108f6576108f561081a565b5b6000610904848285016108cb565b91505092915050565b60008115159050919050565b6109228161090d565b82525050565b600060208201905061093d6000830184610919565b92915050565b61094c8161081f565b82525050565b60006020820190506109676000830184610943565b92915050565b600081519050919050565b600082825260208201905092915050565b60005b838110156109a757808201518184015260208101905061098c565b60008484015250505050565b6000601f19601f8301169050919050565b60006109cf8261096d565b6109d98185610978565b93506109e9818560208601610989565b6109f2816109b3565b840191505092915050565b60006040820190508181036000830152610a1781856109c4565b9050610a266020830184610943565b9392505050565b6000606082019050610a426000830186610943565b8181036020830152610a5481856109c4565b9050610a636040830184610943565b949350505050565b610a74816108a2565b82525050565b6000602082019050610a8f6000830184610a6b565b92915050565b7f596f7520617265206e6f742061207265676973746572656420766f7465722e00600082015250565b6000610acb601f83610978565b9150610ad682610a95565b602082019050919050565b60006020820190508181036000830152610afa81610abe565b9050919050565b7f596f75206861766520616c726561647920766f7465642e000000000000000000600082015250565b6000610b37601783610978565b9150610b4282610b01565b602082019050919050565b60006020820190508181036000830152610b6681610b2a565b9050919050565b7f496e76616c69642063616e6469646174652049442e0000000000000000000000600082015250565b6000610ba3601583610978565b9150610bae82610b6d565b602082019050919050565b60006020820190508181036000830152610bd281610b96565b9050919050565b7f4e487b7100000000000000000000000000000000000000000000000000000000600052601160045260246000fd5b6000610c138261081f565b91507fffffffffffffffffffffffffffffffffffffffffffffffffffffffffffffffff8203610c4557610c44610bd9565b5b600182019050919050565b7f4e487b7100000000000000000000000000000000000000000000000000000000600052602260045260246000fd5b60006002820490506001821680610c9757607f821691505b602082108103610caa57610ca9610c50565b5b50919050565b7f566f74657220616c72656164792061646465642e000000000000000000000000600082015250565b6000610ce6601483610978565b9150610cf182610cb0565b602082019050919050565b60006020820190508181036000830152610d1581610cd9565b905091905056fea264697066735822122010f8aefa543977fc53ec51273958ec39cafc955ada0c8596aa6fb942e315253264736f6c63430008140033",
  "linkReferences": {},
  "deployedLinkReferences": {}
}