{
  "_format": "hh-sol-artifact-1",
  "contractName": "Voting",
  "sourceName": "contracts/Voting.sol",
  "abi": [
    {
      "inputs": [],
      "stateMutability": "nonpayable",
      "type": "constructor"
    },
    {
      "anonymous": false,
      "inputs": [
        {
          "indexed": true,
          "internalType": "address",
          "name": "voter",
          "type": "address"
        },
        {
          "indexed": true,
          "internalType": "uint256",
          "name": "candidateId",
          "type": "uint256"
        }
      ],
      "name": "Voted",
      "type": "event"
    },
    {
      "anonymous": false,
      "inputs": [
        {
          "indexed": true,
          "internalType": "address",
          "name": "voter",
          "type": "address"
        }
      ],
      "name": "VoterAdded",
      "type": "event"
    },
    {
      "inputs": [
        {
          "internalType": "address",
          "name": "_voter",
          "type": "address"
        }
      ],
      "name": "addVoter",
      "outputs": [],
      "stateMutability": "nonpayable",
      "type": "function"
    },
    {
      "inputs": [],
      "name": "announceWinner",
      "outputs": [
        {
          "internalType": "string",
          "name": "winnerName",
          "type": "string"
        },
        {
          "internalType": "uint256",
          "name": "winnerVoteCount",
          "type": "uint256"
        }
      ],
      "stateMutability": "view",
      "type": "function"
    },
    {
      "inputs": [
        {
          "internalType": "uint256",
          "name": "",
          "type": "uint256"
        }
      ],
      "name": "candidates",
      "outputs": [
        {
          "internalType": "uint256",
          "name": "id",
          "type": "uint256"
        },
        {
          "internalType": "string",
          "name": "name",
          "type": "string"
        },
        {
          "internalType": "uint256",
          "name": "voteCount",
          "type": "uint256"
        }
      ],
      "stateMutability": "view",
      "type": "function"
    },
    {
      "inputs": [],
      "name": "candidatesCount",
      "outputs": [
        {
          "internalType": "uint256",
          "name": "",
          "type": "uint256"
        }
      ],
      "stateMutability": "view",
      "type": "function"
    },
    {
      "inputs": [],
      "name": "getVoterCount",
      "outputs": [
        {
          "internalType": "uint256",
          "name": "",
          "type": "uint256"
        }
      ],
      "stateMutability": "view",
      "type": "function"
    },
    {
      "inputs": [
        {
          "internalType": "address",
          "name": "",
          "type": "address"
        }
      ],
      "name": "hasVoted",
      "outputs": [
        {
          "internalType": "bool",
          "name": "",
          "type": "bool"
        }
      ],
      "stateMutability": "view",
      "type": "function"
    },
    {
      "inputs": [
        {
          "internalType": "address",
          "name": "",
          "type": "address"
        }
      ],
      "name": "registeredVoters",
      "outputs": [
        {
          "internalType": "bool",
          "name": "",
          "type": "bool"
        }
      ],
      "stateMutability": "view",
      "type": "function"
    },
    {
      "inputs": [
        {
          "internalType": "uint256",
          "name": "_candidateId",
          "type": "uint256"
        }
      ],
      "name": "vote",
      "outputs": [],
      "stateMutability": "nonpayable",
      "type": "function"
    },
    {
      "inputs": [
        {
          "internalType": "uint256",
          "name": "",
          "type": "uint256"
        }
      ],
      "name": "voterList",
      "outputs": [
        {
          "internalType": "address",
          "name": "",
          "type": "address"
        }
      ],
      "stateMutability": "view",
      "type": "function"
    }
  ],
  "bytecode": "0x60806040523480156200001157600080fd5b50620000226200002860201b60201c565b62000c99565b60006040518061042001604052806040518060400160405280600d81526020017f4e6172656e647261204d6f64690000000000000000000000000000000000000081525081526020016040518060400160405280600c81526020017f526168756c2047616e646869000000000000000000000000000000000000000081525081526020016040518060400160405280600981526020017f416d69742053686168000000000000000000000000000000000000000000000081525081526020016040518060400160405280600f81526020017f596f6769204164697479616e617468000000000000000000000000000000000081525081526020016040518060400160405280600f81526020017f417276696e64204b656a726977616c000000000000000000000000000000000081525081526020016040518060400160405280600f81526020017f4d616d6174612042616e65726a6565000000000000000000000000000000000081525081526020016040518060400160405280600c81526020017f536861726164205061776172000000000000000000000000000000000000000081525081526020016040518060400160405280601081526020017f55646468617620546861636b657261790000000000000000000000000000000081525081526020016040518060400160405280600c81526020017f4e6974697368204b756d6172000000000000000000000000000000000000000081525081526020016040518060400160405280600e81526020017f54656a617368776920596164617600000000000000000000000000000000000081525081526020016040518060400160405280600e81526020017f416b68696c65736820596164617600000000000000000000000000000000000081525081526020016040518060400160405280600881526020017f4d6179617761746900000000000000000000000000000000000000000000000081525081526020016040518060400160405280601181526020017f4368616e64726162616275204e6169647500000000000000000000000000000081525081526020016040518060400160405280601181526020017f4a6167616e204d6f68616e20526564647900000000000000000000000000000081525081526020016040518060400160405280601481526020017f4b2e204368616e6472617368656b61722052616f00000000000000000000000081525081526020016040518060400160405280600c81526020017f536f6e69612047616e646869000000000000000000000000000000000000000081525081526020016040518060400160405280601081526020017f50696e61726179692056696a6179616e0000000000000000000000000000000081525081526020016040518060400160405280600981526020017f4d4b205374616c696e000000000000000000000000000000000000000000000081525081526020016040518060400160405280601181526020017f446576656e647261204661646e6176697300000000000000000000000000000081525081526020016040518060400160405280600c81526020017f48656d616e7420536f72656e000000000000000000000000000000000000000081525081526020016040518060400160405280601081526020017f4269706c6162204b756d6172204465620000000000000000000000000000000081525081526020016040518060400160405280600e81526020017f426875706573682042616768656c00000000000000000000000000000000000081525081526020016040518060400160405280601381526020017f4d616e6f686172204c616c204b6861747461720000000000000000000000000081525081526020016040518060400160405280601081526020017f42617361766172616a20426f6d6d61690000000000000000000000000000000081525081526020016040518060400160405280600c81526020017f4173686f6b204765686c6f74000000000000000000000000000000000000000081525081526020016040518060400160405280600c81526020017f53616368696e2050696c6f74000000000000000000000000000000000000000081525081526020016040518060400160405280600e81526020017f4e617665656e205061746e61696b00000000000000000000000000000000000081525081526020016040518060400160405280600f81526020017f566173756e64686172612052616a65000000000000000000000000000000000081525081526020016040518060400160405280601381526020017f53756b686269722053696e676820426164616c0000000000000000000000000081525081526020016040518060400160405280601481526020017f48617273696d726174204b61757220426164616c00000000000000000000000081525081526020016040518060400160405280600d81526020017f4a6974696e20507261736164610000000000000000000000000000000000000081525081526020016040518060400160405280601481526020017f4a796f746972616469747961205363696e64696100000000000000000000000081525081526020016040518060400160405280600d81526020017f52616a6e6174682053696e676800000000000000000000000000000000000000815250815250905060005b6021811015620008895760046000815480929190620007f390620008c6565b91905055506040518060600160405280600454815260200183836021811062000821576200082062000913565b5b602002015181526020016000815250600080600454815260200190815260200160002060008201518160000155602082015181600101908162000865919062000bb2565b506040820151816002015590505080806200088090620008c6565b915050620007d4565b5050565b7f4e487b7100000000000000000000000000000000000000000000000000000000600052601160045260246000fd5b6000819050919050565b6000620008d382620008bc565b91507fffffffffffffffffffffffffffffffffffffffffffffffffffffffffffffffff82036200090857620009076200088d565b5b600182019050919050565b7f4e487b7100000000000000000000000000000000000000000000000000000000600052603260045260246000fd5b600081519050919050565b7f4e487b7100000000000000000000000000000000000000000000000000000000600052604160045260246000fd5b7f4e487b7100000000000000000000000000000000000000000000000000000000600052602260045260246000fd5b60006002820490506001821680620009c457607f821691505b602082108103620009da57620009d96200097c565b5b50919050565b60008190508160005260206000209050919050565b60006020601f8301049050919050565b600082821b905092915050565b60006008830262000a447fffffffffffffffffffffffffffffffffffffffffffffffffffffffffffffffff8262000a05565b62000a50868362000a05565b95508019841693508086168417925050509392505050565b6000819050919050565b600062000a9362000a8d62000a8784620008bc565b62000a68565b620008bc565b9050919050565b6000819050919050565b62000aaf8362000a72565b62000ac762000abe8262000a9a565b84845462000a12565b825550505050565b600090565b62000ade62000acf565b62000aeb81848462000aa4565b505050565b5b8181101562000b135762000b0760008262000ad4565b60018101905062000af1565b5050565b601f82111562000b625762000b2c81620009e0565b62000b3784620009f5565b8101602085101562000b47578190505b62000b5f62000b5685620009f5565b83018262000af0565b50505b505050565b600082821c905092915050565b600062000b876000198460080262000b67565b1980831691505092915050565b600062000ba2838362000b74565b9150826002028217905092915050565b62000bbd8262000942565b67ffffffffffffffff81111562000bd95762000bd86200094d565b5b62000be58254620009ab565b62000bf282828562000b17565b600060209050601f83116001811462000c2a576000841562000c15578287015190505b62000c21858262000b94565b86555062000c91565b601f19841662000c3a86620009e0565b60005b8281101562000c645784890151825560018201915060208501945060208101905062000c3d565b8683101562000c84578489015162000c80601f89168262000b74565b8355505b6001600288020188555050505b505050505050565b61104a8062000ca96000396000f3fe608060405234801561001057600080fd5b50600436106100935760003560e01c80632d8cd096116100665780632d8cd096146101205780633477ee2e1461013f57806350e2e8af14610171578063a9ff6df1146101a1578063f4ab9adf146101d157610093565b80630121b93f1461009857806309eef43e146100b457806311174a29146100e45780632d35a8a214610102575b600080fd5b6100b260048036038101906100ad9190610aee565b6101ed565b005b6100ce60048036038101906100c99190610b79565b6104f3565b6040516100db9190610bc1565b60405180910390f35b6100ec610513565b6040516100f99190610beb565b60405180910390f35b61010a610520565b6040516101179190610beb565b60405180910390f35b610128610526565b604051610136929190610c96565b60405180910390f35b61015960048036038101906101549190610aee565b61064e565b60405161016893929190610cc6565b60405180910390f35b61018b60048036038101906101869190610aee565b610700565b6040516101989190610d13565b60405180910390f35b6101bb60048036038101906101b69190610b79565b61073f565b6040516101c89190610bc1565b60405180910390f35b6101eb60048036038101906101e69190610b79565b61075f565b005b600160003373ffffffffffffffffffffffffffffffffffffffff1673ffffffffffffffffffffffffffffffffffffffff16815260200190815260200160002060009054906101000a900460ff16610279576040517f08c379a000000000000000000000000000000000000000000000000000000000815260040161027090610d7a565b60405180910390fd5b600260003373ffffffffffffffffffffffffffffffffffffffff1673ffffffffffffffffffffffffffffffffffffffff16815260200190815260200160002060009054906101000a900460ff1615610306576040517f08c379a00000000000000000000000000000000000000000000000000000000081526004016102fd90610de6565b60405180910390fd5b60008111801561031857506004548111155b610357576040517f08c379a000000000000000000000000000000000000000000000000000000000815260040161034e90610e52565b60405180910390fd5b6001600260003373ffffffffffffffffffffffffffffffffffffffff1673ffffffffffffffffffffffffffffffffffffffff16815260200190815260200160002060006101000a81548160ff02191690831515021790555060008082815260200190815260200160002060020160008154809291906103d590610ea1565b91905055506104196040518060400160405280600681526020017f566f7465723a00000000000000000000000000000000000000000000000000008152503361092b565b6104586040518060400160405280601781526020017f566f74656420666f722043616e6469646174652049443a000000000000000000815250826109c7565b6104ac6040518060400160405280601a81526020017f546f74616c20566f74657320666f722043616e6469646174653a000000000000815250600080848152602001908152602001600020600201546109c7565b803373ffffffffffffffffffffffffffffffffffffffff167f4d99b957a2bc29a30ebd96a7be8e68fe50a3c701db28a91436490b7d53870ca460405160405180910390a350565b60026020528060005260406000206000915054906101000a900460ff1681565b6000600380549050905090565b60045481565b606060008060009050600080600190505b600454811161058c5782600080838152602001908152602001600020600201541115610579576000808281526020019081526020016000206002015492508091505b808061058490610ea1565b915050610537565b50600080828152602001908152602001600020600101600080838152602001908152602001600020600201548180546105c490610f18565b80601f01602080910402602001604051908101604052809291908181526020018280546105f090610f18565b801561063d5780601f106106125761010080835404028352916020019161063d565b820191906000526020600020905b81548152906001019060200180831161062057829003601f168201915b505050505091509350935050509091565b600060205280600052604060002060009150905080600001549080600101805461067790610f18565b80601f01602080910402602001604051908101604052809291908181526020018280546106a390610f18565b80156106f05780601f106106c5576101008083540402835291602001916106f0565b820191906000526020600020905b8154815290600101906020018083116106d357829003601f168201915b5050505050908060020154905083565b6003818154811061071057600080fd5b906000526020600020016000915054906101000a900473ffffffffffffffffffffffffffffffffffffffff1681565b60016020528060005260406000206000915054906101000a900460ff1681565b600160008273ffffffffffffffffffffffffffffffffffffffff1673ffffffffffffffffffffffffffffffffffffffff16815260200190815260200160002060009054906101000a900460ff16156107ec576040517f08c379a00000000000000000000000000000000000000000000000000000000081526004016107e390610f95565b60405180910390fd5b60018060008373ffffffffffffffffffffffffffffffffffffffff1673ffffffffffffffffffffffffffffffffffffffff16815260200190815260200160002060006101000a81548160ff0219169083151502179055506003819080600181540180825580915050600190039060005260206000200160009091909190916101000a81548173ffffffffffffffffffffffffffffffffffffffff021916908373ffffffffffffffffffffffffffffffffffffffff1602179055506108e56040518060400160405280600c81526020017f416464656420566f7465723a00000000000000000000000000000000000000008152508261092b565b8073ffffffffffffffffffffffffffffffffffffffff167fa636f4a11e2d3ba7f89d042ecb0a6b886716e98cd49d8fd876ee0f73bced42b860405160405180910390a250565b6109c38282604051602401610941929190610fb5565b6040516020818303038152906040527f319af333000000000000000000000000000000000000000000000000000000007bffffffffffffffffffffffffffffffffffffffffffffffffffffffff19166020820180517bffffffffffffffffffffffffffffffffffffffffffffffffffffffff8381831617835250505050610a63565b5050565b610a5f82826040516024016109dd929190610c96565b6040516020818303038152906040527fb60e72cc000000000000000000000000000000000000000000000000000000007bffffffffffffffffffffffffffffffffffffffffffffffffffffffff19166020820180517bffffffffffffffffffffffffffffffffffffffffffffffffffffffff8381831617835250505050610a63565b5050565b610a7a81610a72610a7d610a9e565b63ffffffff16565b50565b60006a636f6e736f6c652e6c6f679050600080835160208501845afa505050565b610aa9819050919050565b610ab1610fe5565b565b600080fd5b6000819050919050565b610acb81610ab8565b8114610ad657600080fd5b50565b600081359050610ae881610ac2565b92915050565b600060208284031215610b0457610b03610ab3565b5b6000610b1284828501610ad9565b91505092915050565b600073ffffffffffffffffffffffffffffffffffffffff82169050919050565b6000610b4682610b1b565b9050919050565b610b5681610b3b565b8114610b6157600080fd5b50565b600081359050610b7381610b4d565b92915050565b600060208284031215610b8f57610b8e610ab3565b5b6000610b9d84828501610b64565b91505092915050565b60008115159050919050565b610bbb81610ba6565b82525050565b6000602082019050610bd66000830184610bb2565b92915050565b610be581610ab8565b82525050565b6000602082019050610c006000830184610bdc565b92915050565b600081519050919050565b600082825260208201905092915050565b60005b83811015610c40578082015181840152602081019050610c25565b60008484015250505050565b6000601f19601f8301169050919050565b6000610c6882610c06565b610c728185610c11565b9350610c82818560208601610c22565b610c8b81610c4c565b840191505092915050565b60006040820190508181036000830152610cb08185610c5d565b9050610cbf6020830184610bdc565b9392505050565b6000606082019050610cdb6000830186610bdc565b8181036020830152610ced8185610c5d565b9050610cfc6040830184610bdc565b949350505050565b610d0d81610b3b565b82525050565b6000602082019050610d286000830184610d04565b92915050565b7f596f7520617265206e6f742061207265676973746572656420766f7465722e00600082015250565b6000610d64601f83610c11565b9150610d6f82610d2e565b602082019050919050565b60006020820190508181036000830152610d9381610d57565b9050919050565b7f596f75206861766520616c726561647920766f7465642e000000000000000000600082015250565b6000610dd0601783610c11565b9150610ddb82610d9a565b602082019050919050565b60006020820190508181036000830152610dff81610dc3565b9050919050565b7f496e76616c69642063616e6469646174652049442e0000000000000000000000600082015250565b6000610e3c601583610c11565b9150610e4782610e06565b602082019050919050565b60006020820190508181036000830152610e6b81610e2f565b9050919050565b7f4e487b7100000000000000000000000000000000000000000000000000000000600052601160045260246000fd5b6000610eac82610ab8565b91507fffffffffffffffffffffffffffffffffffffffffffffffffffffffffffffffff8203610ede57610edd610e72565b5b600182019050919050565b7f4e487b7100000000000000000000000000000000000000000000000000000000600052602260045260246000fd5b60006002820490506001821680610f3057607f821691505b602082108103610f4357610f42610ee9565b5b50919050565b7f566f74657220616c72656164792061646465642e000000000000000000000000600082015250565b6000610f7f601483610c11565b9150610f8a82610f49565b602082019050919050565b60006020820190508181036000830152610fae81610f72565b9050919050565b60006040820190508181036000830152610fcf8185610c5d565b9050610fde6020830184610d04565b9392505050565b7f4e487b7100000000000000000000000000000000000000000000000000000000600052605160045260246000fdfea264697066735822122032a1736d53220c1ae5db1bf199ef30d176aa714d21f7fe49593499c54dba7e6f64736f6c63430008140033",
  "linkReferences": {},
  "deployedLinkReferences": {}
}